:020000020000FC
:100000000FEF0DBF08E00EBF00E00AB90FEF0BB90C
:100010000FEF04B900E005B90FEF07B900E008B928
:100020001FEF20E030E009B11017E9F333C009B148
:100030001017C9F3102F0E9420000E942700F3CF51
:1000400002FF0E942E0003FF0E943500089504FF66
:100050000E943C0005FF0E94430008952395203133
:1000600011F025B9089520E0FCCF203019F02A9531
:1000700025B908952FE0FCCF3395303111F038B910
:10008000089530E0FCCF303019F03A9538B9089532
:100090003FE0FCCF40E040E043954030E1F740E0F6
:0800A00043954030E1F7C3CFA6
:00000001FF
