:020000020000FC
:100000000FEF0DBF08E00EBF00E00AB90FEF0BB90C
:100010000FEF04B900E005B90FEF07B900E008B928
:100020001FEF20E030E009B11017E9F30E9447000C
:1000300009B11017C1F3102F0E9421000E94260061
:10004000F2CF02FF08C003FF0DC0089504FF11C0E6
:1000500005FF16C008952395203111F025B9F3CF7F
:1000600020E0FCCF203019F02A9525B9EECF2FE003
:10007000FCCF3395303111F038B9EACF30E0FCCF06
:10008000303019F03A9538B9E5CF3FE0FCCF40E089
:1000900050E043954030E9F753955030E9F7C8CF29
:00000001FF
