:020000020000FC
:100000000FEF0DBF08E00EBF00E00AB90FEF0BB90C
:100010000FEF04B900E005B90FEF07B900E008B928
:100020001FEF20E030E009B11017E9F30E944B0008
:1000300009B11017C1F3102F0E9421000E9428005F
:10004000F2CF02FF0E942F0003FF0E9436000895A6
:1000500004FF0E943D0005FF0E944400089523957F
:10006000203111F025B9089520E0FCCF203019F09F
:100070002A9525B908952FE0FCCF3395303111F042
:1000800038B9089530E0FCCF303019F03A9538B9DE
:1000900008953FE0FCCF40E040E043954030E1F779
:1000A00040E043954030E1F740E043954030E1F7D0
:0A00B00040E043954030E1F7089569
:00000001FF
